:020000040800F2
:1000000000280020C9150008591500085F150008D0
:10001000651500086B150008711500080000000048
:10002000000000000000000000000000771500083C
:1000300083150008000000008F1500089B150008BC
:1000400011160008111600081116000811160008F4
:1000500011160008111600081116000811160008E4
:1000600011160008111600081116000811160008D4
:1000700011160008111600081116000811160008C4
:1000800011160008111600081116000811160008B4
:1000900011160008111600081116000811160008A4
:1000A0001116000811160008111600081116000894
:1000B000A91500081116000800000000111600081C
:1000C00011160008000000000000000011160008D2
:1000D00000000000111600081116000800000000C2
:1000E0001116000811160008111600080000000083
:1000F0000000000000000000000000000000000000
:0C01000000000000000000005FF808F1A3
:10010C0010B5054C237833B9044B13B10448AFF345
:10011C0000800123237010BD780000200000000037
:10012C00682C000808B5034B1BB103490348AFF317
:10013C00008008BD000000007C000020682C000836
:10014C0080B483B000AF7860034A7B68136000BF53
:10015C000C37BD4680BC70470000002080B483B0D3
:10016C0000AF7860034A7B68136000BF0C37BD4654
:10017C0080BC70470800002080B483B000AF78606A
:10018C00034A7B68136000BF0C37BD4680BC7047C8
:10019C000400002080B400AF0D4B1B680D4A1360A7
:1001AC000B4B1B680C4A13600C4B1B680C4A1360FE
:1001BC000A4B1B680B4A13600B4B1B680B4A1360F2
:1001CC00094B1B680A4A136000BFBD4680BC7047D0
:1001DC00000000200C000020180000200800002067
:1001EC00100000202000002004000020140000203B
:1001FC001C00002080B400AF024B1B681846BD46A3
:10020C0080BC70470000002080B400AF024B1B681C
:10021C001846BD4680BC70470800002080B400AF73
:10022C00024B1B681846BD4680BC7047040000207A
:10023C0080B582B000AF78607B68022B29D07B68D8
:10024C00022B36DC7B68002B03D07B68012B10D093
:10025C002FE000220221194801F0D7FC01220421D1
:10026C00164801F0D2FC01220821144801F0CDFC03
:10027C0020E001220221114801F0C7FC00220421D8
:10028C000E4801F0C2FC012208210C4801F0BDFC13
:10029C0010E001220221094801F0B7FC01220421DF
:1002AC00064801F0B2FC00220821044801F0ADFC24
:1002BC0000E000BF00BF0837BD4680BD000801400C
:1002CC0080B582B000AF78607B68022B29D07B6848
:1002DC00022B36DC7B68002B03D07B68012B10D003
:1002EC002FE000221021194801F08FFC012220215F
:1002FC00164801F08AFC01224021144801F085FCCB
:10030C0020E001221021114801F07FFC0022202165
:10031C000E4801F07AFC012240210C4801F075FCDA
:10032C0010E001221021094801F06FFC012220216C
:10033C00064801F06AFC00224021044801F065FCEB
:10034C0000E000BF00BF0837BD4680BD000801407B
:10035C0080B582B000AF78607B68092B00F2FA811F
:10036C0001A252F823F000BF9D030008FD03000812
:10037C005D040008BD0400081D0500087D0500088B
:10038C00DD0500083D060008A1060008010700086D
:10039C0000228021BE4801F038FC00224FF480710D
:1003AC00BB4801F032FC00224FF40071B84801F058
:1003BC002CFC00224FF48061B54801F026FC002291
:1003CC004FF40061B24801F020FC00224FF4805140
:1003DC00AF4801F01AFC01224FF40051AC4801F077
:1003EC0014FC00224FF48041A94801F00EFCE1E11D
:1003FC0001228021A64801F008FC00224FF48071F4
:10040C00A34801F002FC00224FF40071A04801F057
:10041C00FCFB01224FF480619D4801F0F6FB0122A8
:10042C004FF400619A4801F0F0FB01224FF4805127
:10043C00974801F0EAFB01224FF40051944801F077
:10044C00E4FB00224FF48041914801F0DEFBB1E166
:10045C00002280218E4801F0D8FB00224FF48071DD
:10046C008B4801F0D2FB01224FF40071884801F057
:10047C00CCFB00224FF48061854801F0C6FB0022C2
:10048C004FF40061824801F0C0FB01224FF480510F
:10049C007F4801F0BAFB00224FF400517C4801F078
:1004AC00B4FB00224FF48041794801F0AEFB81E1AE
:1004BC0000228021764801F0A8FB00224FF48071C5
:1004CC00734801F0A2FB00224FF40071704801F058
:1004DC009CFB00224FF480616D4801F096FB0122D9
:1004EC004FF400616A4801F090FB01224FF48051F7
:1004FC00674801F08AFB00224FF40051644801F078
:10050C0084FB00224FF48041614801F07EFB51E1F5
:10051C00012280215E4801F078FB00224FF48071AB
:10052C005B4801F072FB00224FF40071584801F057
:10053C006CFB01224FF48061554801F066FB0122EF
:10054C004FF40061524801F060FB00224FF48051DF
:10055C004F4801F05AFB00224FF400514C4801F077
:10056C0054FB00224FF48041494801F04EFB21E13D
:10057C0000228021464801F048FB01224FF4807193
:10058C00434801F042FB00224FF40071404801F057
:10059C003CFB00224FF480613D4801F036FB012208
:1005AC004FF400613A4801F030FB00224FF48051C7
:1005BC00374801F02AFB00224FF40051344801F077
:1005CC0024FB00224FF48041314801F01EFBF1E086
:1005DC00002280212E4801F018FB01224FF480717B
:1005EC002B4801F012FB00224FF40071284801F057
:1005FC000CFB00224FF48061254801F006FB002221
:10060C004FF40061224801F000FB00224FF48051AE
:10061C001F4801F0FAFA00224FF400511C4801F077
:10062C00F4FA00224FF48041194801F0EEFAC1E0CF
:10063C0000228021164801F0E8FA00224FF4807164
:10064C00134801F0E2FA00224FF40071104801F057
:10065C00DCFA01224FF480610D4801F0D6FA012238
:10066C004FF400610A4801F0D0FA01224FF4805196
:10067C00074801F0CAFA01224FF40051044801F076
:10068C00C4FA00224FF48041014801F0BEFA91E017
:10069C000008014000228021484801F0B6FA0022EF
:1006AC004FF48071454801F0B0FA00224FF400710C
:1006BC00424801F0AAFA00224FF480613F4801F051
:1006CC00A4FA00224FF400613C4801F09EFA00228B
:1006DC004FF48051394801F098FA00224FF4005140
:1006EC00364801F092FA00224FF48041334801F071
:1006FC008CFA5FE000228021304801F086FA00225B
:10070C004FF480712D4801F080FA00224FF40071F3
:10071C002A4801F07AFA00224FF48061274801F050
:10072C0074FA01224FF40061244801F06EFA0022A1
:10073C004FF48051214801F068FA00224FF4005127
:10074C001E4801F062FA00224FF480411B4801F070
:10075C005CFA2FE001228021184801F056FA0122A0
:10076C004FF48071154801F050FA01224FF40071DA
:10077C00124801F04AFA01224FF480610F4801F04F
:10078C0044FA01224FF400610C4801F03EFA0122B8
:10079C004FF48051094801F038FA01224FF400510E
:1007AC00064801F032FA01224FF48041034801F06F
:1007BC002CFA00BF00BF0837BD4680BD00080140C1
:1007CC0080B500AF00220821184801F01EFA002263
:1007DC001021164801F019FA00222021134801F0CB
:1007EC0014FA00224021114801F00FFA01220221D3
:1007FC000F4801F00AFA012204210D4801F005FA14
:10080C00012208210A4801F000FA012210210848AF
:10081C0001F0FBF901222021054801F0F6F9012233
:10082C004021034801F0F1F900BF80BD000C0140EC
:10083C000008014080B500AF002280210B4801F078
:10084C00E4F900224FF48071084801F0DEF900222F
:10085C004FF40071054801F0D8F900224FF4806183
:10086C00024801F0D2F900BF80BD00BF000C01406E
:10087C0080B500AF194B1B68002B0CDB174B1B68AA
:10088C00174A1360154B1B68013B144A1360002078
:10089C00FFF716FD20E0134B1B68002B0CDB114BF4
:1008AC001B680F4A13600F4B1B68013B0D4A13600A
:1008BC000220FFF705FD0FE00B4B1B68002B0BDB39
:1008CC00094B1B68064A1360074B1B68013B064A21
:1008DC0013600120FFF7F4FC00BF80BD180000205E
:1008EC00240000201C0000202000002080B582B0D5
:1008FC0000AF78603960404B1B68092B0FDD01227B
:10090C0080213E4801F081F93B683D4A82FB03128D
:10091C009210DB17D31A1846FFF71AFD62E0364B1C
:10092C001B68062B1ADD00228021344801F06DF97A
:10093C0001224FF48071314801F067F93A68304B6D
:10094C0083FB02139910D317C91A0B469B000B4457
:10095C005B00D11A0846FFF7FBFC43E0264B1B68F3
:10096C00032B16DD00224FF48071244801F04DF961
:10097C0001224FF40071214801F047F97B68204AAD
:10098C0082FB03129210DB17D31A1846FFF7E0FC18
:10099C0028E0194B1B68002B1BDD00224FF4007163
:1009AC00164801F032F901224FF48061134801F02E
:1009BC002CF97A68124B83FB02139910D317C91ABE
:1009CC000B469B000B445B00D11A0846FFF7C0FC9A
:1009DC0008E0094B0C221A6000224FF48061074892
:1009EC0001F013F9044B1B68013B034A136000BF71
:1009FC000837BD4680BD00BF34000020000C01400C
:100A0C006766666680B582B000AF78607B68042B41
:100A1C0043D07B68042B5DDC7B68022B03D07B68A6
:100A2C00032B1DD056E002212D4801F006F90122BE
:100A3C0004212B4801F0E9F801220821284801F093
:100A4C00E4F81021264801F0F8F80122202124486E
:100A5C0001F0DBF801224021214801F0D6F83AE000
:100A6C00012202211E4801F0D0F804211C4801F09B
:100A7C00E4F8012208211A4801F0C7F801221021DC
:100A8C00174801F0C2F82021154801F0D6F80122D0
:100A9C004021134801F0B9F81DE001220221104851
:100AAC0001F0B3F8012204210D4801F0AEF8082141
:100ABC000B4801F0C2F801221021094801F0A5F8F9
:100ACC0001222021064801F0A0F84021044801F041
:100ADC00B4F800E000BF00BF0837BD4680BD00BFC2
:100AEC000008014080B500AF2F4B1B68002B53DC76
:100AFC002E4B1B68002B0EDBFFF7BAFE2B4B1B6833
:100B0C002B4A1360294B1B68013B284A13600220B7
:100B1C00FFF78EFB3DE0274B1B68002B0EDBFFF72E
:100B2C00A7FE244B1B68224A1360224B1B68013B17
:100B3C00204A13600120FFF77BFB2AE01E4B1B6849
:100B4C00002B0EDBFFF794FE1B4B1B68184A13603F
:100B5C00194B1B68013B184A13600020FFF768FB18
:100B6C0017E0164B1B68114A1360154B1B68124A91
:100B7C001360144B1B680F4A1360104B1B68124A0E
:100B8C0013600F4B1B68114A13600E4B1B68104A05
:100B9C001360054BFA221A60034B1B68013B024A97
:100BAC00136000BF80BD00BF2C000020140000208B
:100BBC0028000020100000200C0000200400002061
:100BCC0000000020080000201C000020180000205D
:100BDC002000002080B500AFFFF784FF504B1B684E
:100BEC000F2B08DD012280214E4801F00EF8002069
:100BFC00FFF7AEFB8DE04A4B1B680C2B0EDD002281
:100C0C008021484801F001F801224FF480714548D9
:100C1C0000F0FBFF0120FFF79BFB7AE0404B1B68C9
:100C2C00092B16DD00224FF480713E4800F0EDFFD9
:100C3C00012208213B4800F0E8FF3B4B1B683B4A74
:100C4C0082FB03129210DB17D31A1846FFF780FBB6
:100C5C005FE0334B1B68062B1ADD0022082131485C
:100C6C0000F0D3FF012210212E4800F0CEFF2E4BB6
:100C7C001A682E4B83FB02139910D317C91A0B4613
:100C8C009B000B445B00D11A0846FFF761FB40E068
:100C9C00234B1B68032B15DD00221021214800F08B
:100CAC00B4FF012220211F4800F0AFFF204B1B682E
:100CBC001E4A82FB03129210DB17D31A1846FFF759
:100CCC0047FB26E0164B1B68002B1ADD0022202167
:100CDC00144800F09AFF01224021124800F095FFC1
:100CEC00134B1A68114B83FB02139910D317C91AB3
:100CFC000B469B000B445B00D11A0846FFF728FB00
:100D0C0007E000224021074800F07FFF044B12222D
:100D1C001A60034B1B68013B014A136000BF80BD86
:100D2C0030000020000C0140280000206766666639
:100D3C002400002080B500AF4F4B1B78032B00F232
:100D4C00988001A252F823F0650D00089F0D000851
:100D5C00E70D00082F0E000800F00CF90346002BDD
:100D6C0014D0FFF747FA0346444A1360FFF756FACC
:100D7C000346434A1360FFF747FA0346414A1360A0
:100D8C00FFF71EFD3C4B01221A7073E0FFF722FFA8
:100D9C0070E000F0EFF80346002B03D0364B022234
:100DAC001A7067E000F0F8F80346002B02D000F050
:100DBC006BF809E000F002F90346002B04D02F4B2E
:100DCC001B681846FFF7BCF92C4B1B680221184610
:100DDC00FFF78CFD00F0A0F84CE000F0CBF80346D8
:100DEC00002B03D0244B03221A7043E000F0D4F8FC
:100DFC000346002B02D000F047F809E000F0DEF8C3
:100E0C000346002B04D01F4B1B681846FFF7A6F9AE
:100E1C001C4B1B6803211846FFF768FD00F07CF89B
:100E2C0028E000F0A7F80346002B07D0FFF7B2F933
:100E3C00FFF700FD104B00221A701BE000F0ACF81D
:100E4C000346002B02D000F01FF809E000F0B6F8C2
:100E5C000346002B04D00A4B1B681846FFF78CF98D
:100E6C00074B1B6804211846FFF740FD00F054F8AF
:100E7C0000E000BF00BF80BD94000020980000205F
:100E8C009C000020A000002080B400AF1E4B1B78FB
:100E9C00032B20D0032B2BDC012B02D0022B0DD0EB
:100EAC0026E01A4B1B680133184A1360174B1B685A
:100EBC00622B1FDD154B00221A601BE0144B1B68C4
:100ECC000133134A1360124B1B68622B14DD104B59
:100EDC0000221A6010E00F4B1B6801330D4A13609F
:100EEC000C4B1B68622B09DD0A4B00221A6005E0D3
:100EFC0000BF04E000BF02E000BF00E000BF00BF85
:100F0C00BD4680BC704700BF9400002098000020B4
:100F1C00A00000209C00002080B500AF134B1B6884
:100F2C00002B19DC114BFA221A60114B1B78032B86
:100F3C000ED0032B12DC012B02D0022B04D00DE0BF
:100F4C000220FFF75FFD0AE00320FFF75BFD06E0E0
:100F5C000420FFF757FD02E000BF00E000BF034B89
:100F6C001B68013B014A136000BF80BD38000020A4
:100F7C009400002080B400AF064B1B68012B04D1F9
:100F8C00044B00221A60012300E000231846BD46E2
:100F9C0080BC7047A400002080B400AF064B1B68D7
:100FAC00012B04D1044B00221A60012300E0002322
:100FBC001846BD4680BC7047A800002080B400AF26
:100FCC00064B1B68012B04D1044B00221A60012331
:100FDC0000E000231846BD4680BC7047AC000020E2
:100FEC0080B400AF034B01221A6000BFBD4680BC29
:100FFC00704700BFA400002080B400AF034B012257
:10100C001A6000BFBD4680BC704700BFA80000201E
:10101C0080B400AF034B01221A6000BFBD4680BCF8
:10102C00704700BFAC00002080B500AF834B1B683D
:10103C00834A1360834B1B68804A136001218248EA
:10104C0000F0CCFD03461A467E4B1A607C4B1A68A6
:10105C007A4B1B689A4240D1784B1A68794B1B68C3
:10106C009A423AD1794B1A68764B1B689A4222D035
:10107C00744B1B68754A1360724B1B68002B13D1A1
:10108C00734B1B68002B05D1FFF7AAFF714BFA229B
:10109C001A6022E06E4B1B68012B1ED1FFF7A0FFDC
:1010AC006C4BFA221A6018E0694B00221A60694BEB
:1010BC00FA221A6011E0674B1B68013B654A13600A
:1010CC00644B1B68002B08D1604B01221A60614BEA
:1010DC00FA221A605E4B01221A605F4B1B685F4A52
:1010EC0013605F4B1B685C4A13600221564800F08A
:1010FC0075FD03461A465A4B1A60584B1A68564BE4
:10110C001B689A4240D1544B1A68554B1B689A4243
:10111C003AD1544B1A68524B1B689A4222D0504B0E
:10112C001B68504A13604E4B1B68002B13D14E4B5F
:10113C001B68002B05D1FFF75FFF4C4BFA221A609E
:10114C0022E0494B1B68012B1ED1FFF755FF474B83
:10115C00FA221A6018E0444B00221A60434BFA2220
:10116C001A6011E0414B1B68013B404A13603F4B36
:10117C001B68002B08D13B4B01221A603B4BFA2217
:10118C001A60394B01221A60394B1B68394A1360BB
:10119C00394B1B68364A136004212B4800F01EFDA6
:1011AC0003461A46344B1A60324B1A68304B1B6894
:1011BC009A4240D12E4B1A682F4B1B689A423AD157
:1011CC002E4B1A682C4B1B689A4222D02A4B1B6858
:1011DC002A4A1360284B1B68002B13D1284B1B6821
:1011EC00002B05D1FFF714FF264BFA221A6022E0E0
:1011FC00234B1B68012B1ED1FFF70AFF214BFA2250
:10120C001A6018E01F4BFA221A601D4B00221A605C
:10121C0011E01C4B1B68013B1A4A1360194B1B68ED
:10122C00002B08D1154B01221A60164BFA221A60BA
:10123C00134B01221A6000BF80BD00BF400000208C
:10124C003C00002044000020000C0140480000201D
:10125C00BC000020B0000020500000204C000020FA
:10126C005400002058000020C0000020B4000020D2
:10127C00600000205C00002064000020680000205A
:10128C00C4000020B800002080B500AF00F0BCF90D
:10129C0000F00AF800F090F800F042F8014801F074
:1012AC001DF9FEE7C800002080B590B000AF07F133
:1012BC00180328220021184601F0C8FC3B1D00220F
:1012CC001A605A609A60DA601A610223BB610123CA
:1012DC00BB621023FB6200237B6307F118031846E3
:1012EC0000F0C4FC0346002B01D000F0D3F80F2310
:1012FC007B600023BB600023FB6000233B61002369
:10130C007B613B1D0021184600F030FF0346002B8B
:10131C0001D000F0BFF800BF4037BD4680BD0000D3
:10132C0080B586B000AF07F1080300221A605A603E
:10133C009A60DA603B4600221A605A601D4B4FF0EF
:10134C0080421A601B4B41F63F725A60194B0022C7
:10135C009A60184B0122DA60164B00221A61154B69
:10136C0000229A61134801F069F80346002B01D062
:10137C0000F090F84FF48053BB6007F10803194656
:10138C000C4801F0FFF90346002B01D000F082F865
:10139C0000233B6000237B603B461946054801F067
:1013AC00C7FB0346002B01D000F074F800BF1837C0
:1013BC00BD4680BDC800002080B586B000AF07F1E7
:1013CC00080300221A605A609A60DA60284B9B6905
:1013DC00274A43F004039361254B9B6903F00403F4
:1013EC007B607B68224B9B69214A43F00803936125
:1013FC001F4B9B6903F008033B603B68002247F6D8
:10140C00FE711C4800F001FC00224FF4FF611A48E9
:10141C0000F0FBFB47F6FE73BB600123FB6000236F
:10142C003B6102237B6107F108031946114800F068
:10143C005BFA0723BB600023FB6001233B6107F1D0
:10144C00080319460C4800F04FFA4FF4FF63BB60D9
:10145C000123FB6000233B6102237B6107F108033E
:10146C001946054800F040FA00BF1837BD4680BD4C
:10147C000010024000080140000C014080B582B011
:10148C0000AF7860FFF7D0FDFFF754FC00BF0837C2
:10149C00BD4680BD80B400AF72B600BFFEE7000051
:1014AC0080B485B000AF154B9B69144A43F001031F
:1014BC009361124B9B6903F00103BB60BB680F4B3C
:1014CC00DB690E4A43F08053D3610C4BDB6903F0AC
:1014DC0080537B607B680A4B5B68FB60FB6823F086
:1014EC00E063FB60FB6843F08063FB60044AFB68CD
:1014FC00536000BF1437BD4680BC704700100240DB
:10150C000000014080B584B000AF78607B681B6838
:10151C00B3F1804F13D10C4BDB690B4A43F0010341
:10152C00D361094BDB6903F00103FB60FB6800220C
:10153C0000211C2000F0A1F91C2000F0BAF900BF1A
:10154C001037BD4680BD00BF0010024080B400AF14
:10155C00FEE780B400AFFEE780B400AFFEE780B4D6
:10156C0000AFFEE780B400AFFEE780B400AF00BF71
:10157C00BD4680BC704780B400AF00BFBD4680BC88
:10158C00704780B400AF00BFBD4680BC704780B5CB
:10159C0000AF00F07FF800BF80BD000080B500AF49
:1015AC00024800F0E7FF00BF80BD00BFC80000206C
:1015BC0080B400AF00BFBD4680BC70470C480D49DD
:1015CC000D4A002302E0D458C4500433C4188C4292
:1015DC00F9D30A4A0A4C002301E013600432A242F8
:1015EC00FBD3FFF7E5FF01F00DFBFFF74DFE704756
:1015FC000000002078000020A82C000878000020B3
:10160C0014010020FEE7000080B500AF084B1B68FA
:10161C00074A43F010031360032000F023F90F2056
:10162C0000F008F8FFF73CFF0023184680BD00BF10
:10163C000020024080B582B000AF7860124B1A686F
:10164C00124B1B7819464FF47A73B3FBF1F3B2FBD0
:10165C00F3F3184600F03BF90346002B01D00123AD
:10166C000EE07B680F2B0AD8002279684FF0FF3010
:10167C0000F003F9064A7B681360002300E00123A5
:10168C0018460837BD4680BD6C0000207400002051
:10169C007000002080B400AF054B1B781A46054B38
:1016AC001B681344034A136000BFBD4680BC7047DF
:1016BC00740000201001002080B400AF024B1B68A6
:1016CC001846BD4680BC70471001002080B485B020
:1016DC0000AF78607B6803F00703FB600C4BDB68A2
:1016EC00BB60BA684FF6FF031340BB60FB681A027D
:1016FC00BB68134343F0BF6343F40033BB60044A3D
:10170C00BB68D36000BF1437BD4680BC704700BFB8
:10171C0000ED00E080B400AF044BDB681B0A03F063
:10172C0007031846BD4680BC704700BF00ED00E0C3
:10173C0080B483B000AF0346FB7197F90730002BE0
:10174C000BDBFB7903F01F02064997F907305B09A5
:10175C00012000FA02F241F8232000BF0C37BD46ED
:10176C0080BC704700E100E080B483B000AF03465A
:10177C003960FB7197F90730002B0ADB3B68DAB252
:10178C000C4997F907301201D2B20B4483F80023AD
:10179C000AE03B68DAB20849FB7903F00F03043B1B
:1017AC001201D2B20B441A7600BF0C37BD4680BC76
:1017BC00704700BF00E100E000ED00E080B489B0AC
:1017CC0000AFF860B9607A60FB6803F00703FB6157
:1017DC00FB69C3F10703042B28BF0423BB61FB691E
:1017EC000433062B02D9FB69033B00E000237B6129
:1017FC004FF0FF32BB6902FA03F3DA43BB681A40BD
:10180C007B699A404FF0FF317B6901FA03F3D943AE
:10181C007B680B40134318462437BD4680BC704789
:10182C0080B582B000AF78607B68013BB3F1807FFC
:10183C0001D301230FE00A4A7B68013B53600F215F
:10184C004FF0FF30FFF790FF054B00229A60044BDE
:10185C0007221A60002318460837BD4680BD00BF1A
:10186C0010E000E080B582B000AF78607868FFF7D8
:10187C002DFF00BF0837BD4680BD80B586B000AFD8
:10188C000346B9607A60FB7300237B61FFF742FF6C
:10189C0078617A68B9687869FFF790FF024697F922
:1018AC000F3011461846FFF75FFF00BF1837BD46D3
:1018BC0080BD80B582B000AF0346FB7197F907304D
:1018CC001846FFF735FF00BF0837BD4680BD80B511
:1018DC0082B000AF78607868FFF7A2FF0346184625
:1018EC000837BD4680BD000080B48BB000AF786077
:1018FC00396000237B6200233B6248E101227B6A52
:10190C0002FA03F3FB613B681B68FA691340BB6185
:10191C00BA69FB699A4240F037813B685B68A34A1D
:10192C0093425ED0A14A934275D8A14A934258D0B3
:10193C009F4A93426FD89F4A934252D09D4A9342FA
:10194C0069D89D4A93424CD09B4A934263D89B4A98
:10195C00934246D0994A93425DD8122B2AD8122B27
:10196C0059D801A252F823F0EF190008C919000840
:10197C00DB1900081D1A0008231A0008231A000896
:10198C00231A0008231A0008231A0008231A000837
:10199C00231A0008231A0008231A0008231A000827
:1019AC00231A0008231A0008231A0008D11900086A
:1019BC00E5190008824A934213D02CE03B68DB689F
:1019CC003B6229E03B68DB6804333B6224E03B6804
:1019DC00DB6808333B621FE03B68DB680C333B621F
:1019EC001AE03B689B68002B02D104233B6213E096
:1019FC003B689B68012B05D108233B627B68FA6925
:101A0C001A6109E008233B627B68FA695A6103E0BA
:101A1C0000233B6200E000BFBB69FF2B01D87B6851
:101A2C0001E07B6804337B61BB69FF2B02D87B6AC6
:101A3C009B0002E07B6A083B9B003B617B691A6858
:101A4C000F213B6901FA03F3DB431A40396A3B6906
:101A5C0001FA03F31A437B691A603B685B6803F075
:101A6C008053002B00F09080564B9B69554A43F0F5
:101A7C0001039361534B9B6903F00103BB60BB688B
:101A8C00514A7B6A9B08023352F82330FB607B6A15
:101A9C0003F003039B000F2202FA03F3DB43FA6803
:101AAC001340FB607B68494A93420DD07B68484ADF
:101ABC00934207D07B68474A934201D1022304E04A
:101ACC00032302E0012300E000237A6A02F0030200
:101ADC0092009340FA681343FB603B497B6A9B0876
:101AEC000233FA6841F823203B685B6803F48033C7
:101AFC00002B06D0384B1A683749BB6913430B606F
:101B0C0006E0354B1A68BB69DB43334913400B6065
:101B1C003B685B6803F40033002B06D02E4B5A68ED
:101B2C002D49BB6913434B6006E02B4B5A68BB69CC
:101B3C00DB43294913404B603B685B6803F480131B
:101B4C00002B06D0244B9A682349BB6913438B6046
:101B5C0006E0214B9A68BB69DB431F4913408B603D
:101B6C003B685B6803F40013002B06D01A4BDA6851
:101B7C001949BB691343CB6006E0174BDA68BB69A4
:101B8C00DB4315491340CB607B6A01337B623B68B6
:101B9C001A687B6A22FA03F3002B7FF4AFAE00BF06
:101BAC0000BF2C37BD4680BC704700BF0000321010
:101BBC000000311000002210000021100000121053
:101BCC00000011100010024000000140000801400C
:101BDC00000C0140001001400004014080B485B0AD
:101BEC0000AF78600B467B807B689A687B881340DB
:101BFC00002B02D00123FB7301E00023FB73FB7B62
:101C0C0018461437BD4680BC704780B483B000AF13
:101C1C0078600B467B8013467B707B78002B03D05F
:101C2C007A887B681A6103E07B881A047B681A61E6
:101C3C0000BF0C37BD4680BC704780B485B000AF88
:101C4C0078600B467B807B68DB68FB607A88FB687E
:101C5C0013401A04FB68D9437B880B401A437B68FA
:101C6C001A6100BF1437BD4680BC704780B586B082
:101C7C0000AF78607B68002B01D101236CE27B689C
:101C8C001B6803F00103002B00F08780924B5B680C
:101C9C0003F00C03042B0CD08F4B5B6803F00C038C
:101CAC00082B12D18C4B5B6803F48033B3F5803F67
:101CBC000BD1894B1B6803F40033002B6CD07B6871
:101CCC005B68002B68D1012346E27B685B68B3F547
:101CDC00803F06D1804B1B687F4A43F480331360EE
:101CEC002EE07B685B68002B0CD17B4B1B687A4A1F
:101CFC0023F480331360784B1B68774A23F48023DA
:101D0C0013601DE07B685B68B3F5A02F0CD1724BA0
:101D1C001B68714A43F4802313606F4B1B686E4A37
:101D2C0043F4803313600BE06B4B1B686A4A23F45B
:101D3C0080331360684B1B68674A23F4802313605D
:101D4C007B685B68002B13D0FFF7B6FC386108E0AA
:101D5C00FFF7B2FC02463B69D31A642B01D903236B
:101D6C00FAE15D4B1B6803F40033002BF0D014E058
:101D7C00FFF7A2FC386108E0FFF79EFC02463B69C6
:101D8C00D31A642B01D90323E6E1534B1B6803F4EC
:101D9C000033002BF0D100E000BF7B681B6803F020
:101DAC000203002B63D04C4B5B6803F00C03002B3D
:101DBC000BD0494B5B6803F00C03082B1CD1464B32
:101DCC005B6803F48033002B16D1434B1B6803F084
:101DDC000203002B05D07B681B69012B01D001236A
:101DEC00BAE13D4B1B6823F0F8027B685B69DB00B2
:101DFC00394913430B603AE07B681B69002B20D0F8
:101E0C00364B01221A60FFF757FC386108E0FFF7E8
:101E1C0053FC02463B69D31A022B01D903239BE1E5
:101E2C002D4B1B6803F00203002BF0D02A4B1B68D0
:101E3C0023F0F8027B685B69DB00274913430B60D6
:101E4C0015E0264B00221A60FFF736FC386108E0DB
:101E5C00FFF732FC02463B69D31A022B01D903234C
:101E6C007AE11D4B1B6803F00203002BF0D17B6859
:101E7C001B6803F00803002B3AD07B689B69002B8E
:101E8C0019D0174B01221A60FFF716FC386108E0D5
:101E9C00FFF712FC02463B69D31A022B01D903232C
:101EAC005AE10D4B5B6A03F00203002BF0D00120CA
:101EBC0000F0A6FA1CE00A4B00221A60FFF7FCFBAC
:101ECC0038610FE0FFF7F8FB02463B69D31A022B8F
:101EDC0008D9032340E100BF001002400000424239
:101EEC00800442429E4B5B6A03F00203002BE9D153
:101EFC007B681B6803F00403002B00F0A680002312
:101F0C00FB75974BDB6903F08053002B0DD1944B81
:101F1C00DB69934A43F08053D361914BDB6903F047
:101F2C008053BB60BB680123FB758E4B1B6803F4AD
:101F3C008073002B18D18B4B1B688A4A43F4807337
:101F4C001360FFF7B9FB386108E0FFF7B5FB0246F9
:101F5C003B69D31A642B01D90323FDE0814B1B6829
:101F6C0003F48073002BF0D07B68DB68012B06D167
:101F7C007B4B1B6A7A4A43F0010313622DE07B68AA
:101F8C00DB68002B0CD1764B1B6A754A23F00103DE
:101F9C001362734B1B6A724A23F0040313621CE036
:101FAC007B68DB68052B0CD16D4B1B6A6C4A43F0CC
:101FBC00040313626A4B1B6A694A43F00103136200
:101FCC000BE0674B1B6A664A23F001031362644BF8
:101FDC001B6A634A23F0040313627B68DB68002BE3
:101FEC0015D0FFF769FB38610AE0FFF765FB024685
:101FFC003B69D31A41F28832934201D90323ABE0F7
:10200C00574B1B6A03F00203002BEED014E0FFF7D2
:10201C0053FB38610AE0FFF74FFB02463B69D31ACA
:10202C0041F28832934201D9032395E04C4B1B6A51
:10203C0003F00203002BEED1FB7D012B05D1484BA5
:10204C00DB69474A23F08053D3617B68DB69002B43
:10205C0000F08180424B5B6803F00C03082B61D0CD
:10206C007B68DB69022B46D13F4B00221A60FFF7DD
:10207C0023FB386108E0FFF71FFB02463B69D31ACC
:10208C00022B01D9032367E0354B1B6803F0007367
:10209C00002BF0D17B681B6AB3F5803F08D1304B25
:1020AC005B6823F400327B689B682D4913434B60BB
:1020BC002B4B5B6823F474127B68196A7B685B6A30
:1020CC000B43274913434B60274B01221A60FFF740
:1020DC00F3FA386108E0FFF7EFFA02463B69D31ACE
:1020EC00022B01D9032337E01D4B1B6803F000734F
:1020FC00002BF0D02FE01C4B00221A60FFF7DCFA0B
:10210C00386108E0FFF7D8FA02463B69D31A022B74
:10211C0001D9032320E0124B1B6803F00073002B42
:10212C00F0D118E07B68DB69012B01D1012313E0AE
:10213C000B4B5B68FB60FB6803F480327B681B6AAB
:10214C009A4206D1FB6803F470127B685B6A9A4270
:10215C0001D0012300E0002318461837BD4680BD8E
:10216C0000100240007000406000424280B584B014
:10217C0000AF786039607B68002B01D10123D0E07F
:10218C006A4B1B6803F007033A689A4210D9674BF5
:10219C001B6823F0070265493B6813430B60634BD4
:1021AC001B6803F007033A689A4201D00123B8E098
:1021BC007B681B6803F00203002B20D07B681B6834
:1021CC0003F00403002B05D0594B5B68584A43F4C9
:1021DC00E06353607B681B6803F00803002B05D099
:1021EC00534B5B68524A43F460535360504B5B68EB
:1021FC0023F0F0027B689B684D4913434B607B686E
:10220C001B6803F00103002B40D07B685B68012B3B
:10221C0007D1474B1B6803F40033002B15D1012366
:10222C007FE07B685B68022B07D1414B1B6803F096
:10223C000073002B09D1012373E03D4B1B6803F0A5
:10224C000203002B01D101236BE0394B5B6823F0B7
:10225C0003027B685B68364913434B60FFF72CFA2B
:10226C00F8600AE0FFF728FA0246FB68D31A41F23D
:10227C008832934201D9032353E02D4B5B6803F062
:10228C000C027B685B689B009A42EBD1274B1B6866
:10229C0003F007033A689A4210D2244B1B6823F0D0
:1022AC00070222493B6813430B60204B1B6803F069
:1022BC0007033A689A4201D0012332E07B681B681D
:1022CC0003F00403002B08D0194B5B6823F4E06285
:1022DC007B68DB68164913434B607B681B6803F013
:1022EC000803002B09D0124B5B6823F460527B6807
:1022FC001B69DB000E4913434B6000F021F80246CA
:10230C000B4B5B681B0903F00F030A49CB5C22FAE9
:10231C0003F3094A1360094B1B681846FFF78AF947
:10232C00002318461037BD4680BD00BF0020024078
:10233C0000100240902C00086C000020700000205F
:10234C0090B48AB000AF2A4B3C1D0FCB84E80F0031
:10235C0040F201233B800023FB610023BB6100237F
:10236C007B6200237B6100233B62224B5B68FB6139
:10237C00FB6903F00C03042B02D0082B03D02DE0D7
:10238C001D4B3B622DE0FB699B0C03F00F0307F127
:10239C002802134413F8243C7B61FB6903F480335B
:1023AC00002B13D0134B5B685B0C03F0010307F19C
:1023BC002802134413F8283CBB617B690E4A02FBCC
:1023CC0003F2BB69B2FBF3F37B6204E07B690B4A5B
:1023DC0002FB03F37B627B6A3B6202E0064B3B62CF
:1023EC0000BF3B6A18462837BD4690BC704700BFFB
:1023FC00802C00080010024000127A0000093D00F9
:10240C0080B485B000AF78600A4B1B680A4AA2FB07
:10241C0003235B0A7A6802FB03F3FB6000BFFB68D3
:10242C005A1EFA60002BF9D100BF00BF1437BD460D
:10243C0080BC70476C000020D34D621080B582B018
:10244C0000AF78607B68002B01D1012341E07B68F1
:10245C0093F83D30DBB2002B06D17B68002283F869
:10246C003C207868FFF74EF87B68022283F83D2009
:10247C007B681A687B6804331946104600F06AFAC8
:10248C007B68012283F846207B68012283F83E207A
:10249C007B68012283F83F207B68012283F840206F
:1024AC007B68012283F841207B68012283F842205B
:1024BC007B68012283F843207B68012283F8442047
:1024CC007B68012283F845207B68012283F83D203C
:1024DC00002318460837BD4680BD000080B485B087
:1024EC0000AF78607B6893F83D30DBB2012B01D0F4
:1024FC00012335E07B68022283F83D207B681B6852
:10250C00DA687B681B6842F00102DA607B681B6842
:10251C00164A934209D07B681B68B3F1804F04D0F4
:10252C007B681B68124A934211D17B681B689B68BD
:10253C0003F00703FB60FB68062B10D07B681B685D
:10254C001A687B681B6842F001021A6007E07B681E
:10255C001B681A687B681B6842F001021A60002332
:10256C0018461437BD4680BC704700BF002C014094
:10257C000004004080B582B000AF78607B681B68B7
:10258C001B6903F00203022B22D17B681B68DB68FA
:10259C0003F00203022B1BD17B681B686FF0020255
:1025AC001A617B6801221A777B681B689B6903F0B0
:1025BC000303002B03D0786800F0B1F905E07868CC
:1025CC0000F0A4F9786800F0B3F97B6800221A7760
:1025DC007B681B681B6903F00403042B22D17B6806
:1025EC001B68DB6803F00403042B1BD17B681B689E
:1025FC006FF004021A617B6802221A777B681B68F1
:10260C009B6903F44073002B03D0786800F087F9C2
:10261C0005E0786800F07AF9786800F089F97B6851
:10262C0000221A777B681B681B6903F00803082BD0
:10263C0022D17B681B68DB6803F00803082B1BD1D5
:10264C007B681B686FF008021A617B6804221A779A
:10265C007B681B68DB6903F00303002B03D07868ED
:10266C0000F05DF905E0786800F050F9786800F04A
:10267C005FF97B6800221A777B681B681B6903F083
:10268C001003102B22D17B681B68DB6803F010034E
:10269C00102B1BD17B681B686FF010021A617B68D2
:1026AC0008221A777B681B68DB6903F44073002BE4
:1026BC0003D0786800F033F905E0786800F026F96B
:1026CC00786800F035F97B6800221A777B681B6804
:1026DC001B6903F00103012B0ED17B681B68DB68BF
:1026EC0003F00103012B07D17B681B686FF001021B
:1026FC001A617868FEF7C2FE7B681B681B6903F0E1
:10270C008003802B0ED17B681B68DB6803F0800391
:10271C00802B07D17B681B686FF080021A61786888
:10272C0000F067FA7B681B681B6903F04003402BC1
:10273C000ED17B681B68DB6803F04003402B07D18C
:10274C007B681B686FF040021A61786800F0F9F83A
:10275C007B681B681B6903F02003202B0ED17B6860
:10276C001B68DB6803F02003202B07D17B681B68F8
:10277C006FF020021A61786800F032FA00BF083757
:10278C00BD4680BD80B584B000AF786039607B6891
:10279C0093F83C30012B01D10223B3E07B6801227A
:1027AC0083F83C207B68022283F83D207B681B6801
:1027BC009B68FB60FB6823F07703FB60FB6823F4EA
:1027CC007F43FB607B681B68FA689A603B681B68F8
:1027DC00B3F5005F3ED0B3F5005F00F28780B3F530
:1027EC00805F00F08580B3F5805F7FD8702B1AD0A6
:1027FC00702B7BD8602B50D0602B77D8502B3CD0D3
:10280C00502B73D8402B58D0402B6FD8302B64D022
:10281C00302B6BD8202B60D0202B67D8002B5CD0B2
:10282C00102B5AD062E07B6818683B6899683B684B
:10283C005A683B68DB6800F05CF97B681B689B6836
:10284C00FB60FB6843F07703FB607B681B68FA68EE
:10285C009A604EE07B6818683B6899683B685A68D8
:10286C003B68DB6800F045F97B681B689A687B68FD
:10287C001B6842F480429A603BE07B6818683B68B6
:10288C0059683B68DB681A4600F0BCF87B681B682B
:10289C005021184600F013F92BE07B6818683B6850
:1028AC0059683B68DB681A4600F0DAF87B681B68ED
:1028BC006021184600F003F91BE07B6818683B6840
:1028CC0059683B68DB681A4600F09CF87B681B680B
:1028DC004021184600F0F3F80BE07B681A683B685F
:1028EC001B681946104600F0EAF802E000BF00E051
:1028FC0000BF7B68012283F83D207B68002283F8AF
:10290C003C20002318461037BD4680BD80B483B0F0
:10291C0000AF786000BF0C37BD4680BC704780B4F8
:10292C0083B000AF786000BF0C37BD4680BC7047E9
:10293C0080B483B000AF786000BF0C37BD4680BC5C
:10294C00704780B483B000AF786000BF0C37BD46D1
:10295C0080BC704780B485B000AF786039607B680C
:10296C001B68FB607B68254A934207D07B68B3F1F8
:10297C00804F03D07B68224A934208D1FB6823F036
:10298C007003FB603B685B68FA681343FB607B6811
:10299C001A4A934207D07B68B3F1804F03D07B680F
:1029AC00174A934208D1FB6823F44073FB603B68E1
:1029BC00DB68FA681343FB60FB6823F080023B681A
:1029CC005B691343FB607B68FA681A603B689A6822
:1029DC007B68DA623B681A687B689A627B68074A94
:1029EC00934203D13B681A697B681A637B680122A6
:1029FC005A6100BF1437BD4680BC7047002C0140A3
:102A0C000004004080B487B000AFF860B9607A6011
:102A1C00FB681B6A7B61FB681B6A23F00102FB6885
:102A2C001A62FB689B693B613B6923F0F0033B61D5
:102A3C007B681B013A6913433B617B6923F00A03F2
:102A4C007B617A69BB6813437B61FB683A699A6165
:102A5C00FB687A691A6200BF1C37BD4680BC7047A0
:102A6C0080B487B000AFF860B9607A60FB681B6A0D
:102A7C0023F01002FB681A62FB689B697B61FB68A0
:102A8C001B6A3B617B6923F470437B617B681B038E
:102A9C007A6913437B613B6923F0A0033B61BB68FC
:102AAC001B013A6913433B61FB687A699A61FB68C5
:102ABC003A691A6200BF1C37BD4680BC704780B4AF
:102ACC0085B000AF786039607B689B68FB60FB6801
:102ADC0023F07003FB603A68FB68134343F0070371
:102AEC00FB607B68FA689A6000BF1437BD4680BCF7
:102AFC00704780B487B000AFF860B9607A603B6013
:102B0C00FB689B687B617B6923F47F437B613B683B
:102B1C001A027B681A43BB6813437A6913437B61BF
:102B2C00FB687A699A6000BF1C37BD4680BC704751
:102B3C0080B485B000AF786039607B6893F83C3026
:102B4C00012B01D1022341E07B68012283F83C2058
:102B5C007B68022283F83D207B681B685B68FB6006
:102B6C007B681B689B68BB60FB6823F07003FB6091
:102B7C003B681B68FA681343FB607B681B68FA6848
:102B8C005A607B681B68144A934209D07B681B68A7
:102B9C00B3F1804F04D07B681B68104A93420CD170
:102BAC00BB6823F08003BB603B685B68BA68134367
:102BBC00BB607B681B68BA689A607B68012283F8EB
:102BCC003D207B68002283F83C20002318461437F4
:102BDC00BD4680BC704700BF002C01400004004083
:102BEC0080B483B000AF786000BF0C37BD4680BCAA
:102BFC00704780B483B000AF786000BF0C37BD461F
:102C0C0080BC704770B500260C4D0D4C641BA41095
:102C1C00A64209D100F022F800260A4D0A4C641B8A
:102C2C00A410A64205D170BD55F8043B9847013657
:102C3C00EEE755F8043B98470136F2E7A02C000864
:102C4C00A02C0008A02C0008A42C00080346024469
:102C5C00934200D1704703F8011BF9E7F8B500BFA8
:102C6C00F8BC08BC9E467047F8B500BFF8BC08BC61
:042C7C009E467047B9
:102C800002030405060708090A0B0C0D0E0F1010AD
:102C9000000000000000000001020304060708090C
:042CA00031010008F6
:042CA4000D01000816
:102CA800050000000300000002000000050000000D
:102CB80003000000020000000500000003000000FF
:102CC800020000000500000003000000FA000000F8
:102CD800120000000C000000FA00000001000000D3
:102CE80001000000010000000100000001000000D8
:102CF80001000000010000000100000001000000C8
:102D08000100000001000000010000000024F400A0
:082D18001000000001000000A2
:04000005080015C911
:00000001FF
